{
  "contractName": "EthSwap",
  "abi": [
    {
      "inputs": [
        {
          "internalType": "contract Token",
          "name": "_token",
          "type": "address"
        }
      ],
      "stateMutability": "nonpayable",
      "type": "constructor"
    },
    {
      "anonymous": false,
      "inputs": [
        {
          "indexed": false,
          "internalType": "address",
          "name": "account",
          "type": "address"
        },
        {
          "indexed": false,
          "internalType": "address",
          "name": "token",
          "type": "address"
        },
        {
          "indexed": false,
          "internalType": "uint256",
          "name": "amount",
          "type": "uint256"
        },
        {
          "indexed": false,
          "internalType": "uint256",
          "name": "rate",
          "type": "uint256"
        }
      ],
      "name": "TokensPurchased",
      "type": "event"
    },
    {
      "anonymous": false,
      "inputs": [
        {
          "indexed": false,
          "internalType": "address",
          "name": "account",
          "type": "address"
        },
        {
          "indexed": false,
          "internalType": "address",
          "name": "token",
          "type": "address"
        },
        {
          "indexed": false,
          "internalType": "uint256",
          "name": "amount",
          "type": "uint256"
        },
        {
          "indexed": false,
          "internalType": "uint256",
          "name": "rate",
          "type": "uint256"
        }
      ],
      "name": "TokensSold",
      "type": "event"
    },
    {
      "inputs": [],
      "name": "name",
      "outputs": [
        {
          "internalType": "string",
          "name": "",
          "type": "string"
        }
      ],
      "stateMutability": "view",
      "type": "function",
      "constant": true
    },
    {
      "inputs": [],
      "name": "owner",
      "outputs": [
        {
          "internalType": "address",
          "name": "",
          "type": "address"
        }
      ],
      "stateMutability": "view",
      "type": "function",
      "constant": true
    },
    {
      "inputs": [],
      "name": "rate",
      "outputs": [
        {
          "internalType": "uint256",
          "name": "",
          "type": "uint256"
        }
      ],
      "stateMutability": "view",
      "type": "function",
      "constant": true
    },
    {
      "inputs": [],
      "name": "seller",
      "outputs": [
        {
          "internalType": "address payable",
          "name": "",
          "type": "address"
        }
      ],
      "stateMutability": "view",
      "type": "function",
      "constant": true
    },
    {
      "inputs": [],
      "name": "token",
      "outputs": [
        {
          "internalType": "contract Token",
          "name": "",
          "type": "address"
        }
      ],
      "stateMutability": "view",
      "type": "function",
      "constant": true
    },
    {
      "inputs": [],
      "name": "buyTokens",
      "outputs": [],
      "stateMutability": "payable",
      "type": "function",
      "payable": true
    },
    {
      "inputs": [
        {
          "internalType": "uint256",
          "name": "_amount",
          "type": "uint256"
        }
      ],
      "name": "sellTokens",
      "outputs": [],
      "stateMutability": "payable",
      "type": "function",
      "payable": true
    }
  ],
  "bytecode": "0x60806040526040518060400160405280601881526020017f4574685377617020496e7374616e742045786368616e67650000000000000000815250600090805190602001906200005192919062000176565b5033600260006101000a81548173ffffffffffffffffffffffffffffffffffffffff021916908373ffffffffffffffffffffffffffffffffffffffff1602179055506064600455348015620000a557600080fd5b5060405162001060380380620010608339818101604052810190620000cb91906200023d565b80600360006101000a81548173ffffffffffffffffffffffffffffffffffffffff021916908373ffffffffffffffffffffffffffffffffffffffff160217905550600260009054906101000a900473ffffffffffffffffffffffffffffffffffffffff16600160006101000a81548173ffffffffffffffffffffffffffffffffffffffff021916908373ffffffffffffffffffffffffffffffffffffffff1602179055505062000330565b8280546200018490620002b1565b90600052602060002090601f016020900481019282620001a85760008555620001f4565b82601f10620001c357805160ff1916838001178555620001f4565b82800160010185558215620001f4579182015b82811115620001f3578251825591602001919060010190620001d6565b5b50905062000203919062000207565b5090565b5b808211156200022257600081600090555060010162000208565b5090565b600081519050620002378162000316565b92915050565b6000602082840312156200025057600080fd5b6000620002608482850162000226565b91505092915050565b6000620002768262000291565b9050919050565b60006200028a8262000269565b9050919050565b600073ffffffffffffffffffffffffffffffffffffffff82169050919050565b60006002820490506001821680620002ca57607f821691505b60208210811415620002e157620002e0620002e7565b5b50919050565b7f4e487b7100000000000000000000000000000000000000000000000000000000600052602260045260246000fd5b62000321816200027d565b81146200032d57600080fd5b50565b610d2080620003406000396000f3fe6080604052600436106100705760003560e01c80636c11bcd31161004e5780636c11bcd3146100f65780638da5cb5b14610112578063d0febe4c1461013d578063fc0c546a1461014757610070565b806306fdde031461007557806308551a53146100a05780632c4e722e146100cb575b600080fd5b34801561008157600080fd5b5061008a610172565b6040516100979190610a21565b60405180910390f35b3480156100ac57600080fd5b506100b5610200565b6040516100c29190610901565b60405180910390f35b3480156100d757600080fd5b506100e0610226565b6040516100ed9190610a43565b60405180910390f35b610110600480360381019061010b91906107f5565b61022c565b005b34801561011e57600080fd5b50610127610564565b60405161013491906108cb565b60405180910390f35b61014561058a565b005b34801561015357600080fd5b5061015c610767565b6040516101699190610a06565b60405180910390f35b6000805461017f90610bec565b80601f01602080910402602001604051908101604052809291908181526020018280546101ab90610bec565b80156101f85780601f106101cd576101008083540402835291602001916101f8565b820191906000526020600020905b8154815290600101906020018083116101db57829003601f168201915b505050505081565b600160009054906101000a900473ffffffffffffffffffffffffffffffffffffffff1681565b60045481565b600260009054906101000a900473ffffffffffffffffffffffffffffffffffffffff1673ffffffffffffffffffffffffffffffffffffffff16600160009054906101000a900473ffffffffffffffffffffffffffffffffffffffff1673ffffffffffffffffffffffffffffffffffffffff16146102a857600080fd5b80600360009054906101000a900473ffffffffffffffffffffffffffffffffffffffff1673ffffffffffffffffffffffffffffffffffffffff166370a08231600160009054906101000a900473ffffffffffffffffffffffffffffffffffffffff166040518263ffffffff1660e01b815260040161032691906108e6565b60206040518083038186803b15801561033e57600080fd5b505afa158015610352573d6000803e3d6000fd5b505050506040513d601f19601f82011682018060405250810190610376919061081e565b101561038157600080fd5b6000600454826103919190610a7a565b9050804710156103a057600080fd5b600360009054906101000a900473ffffffffffffffffffffffffffffffffffffffff1673ffffffffffffffffffffffffffffffffffffffff166323b872dd600160009054906101000a900473ffffffffffffffffffffffffffffffffffffffff1630856040518463ffffffff1660e01b81526004016104219392919061091c565b602060405180830381600087803b15801561043b57600080fd5b505af115801561044f573d6000803e3d6000fd5b505050506040513d601f19601f8201168201806040525081019061047391906107cc565b50600160009054906101000a900473ffffffffffffffffffffffffffffffffffffffff1673ffffffffffffffffffffffffffffffffffffffff166108fc829081150290604051600060405180830381858888f193505050501580156104dc573d6000803e3d6000fd5b507f697c42d55a5e1fed3f464ec6f38b32546a0bd368dc8068b065c67566d73f3290600160009054906101000a900473ffffffffffffffffffffffffffffffffffffffff16600360009054906101000a900473ffffffffffffffffffffffffffffffffffffffff16846004546040516105589493929190610953565b60405180910390a15050565b600260009054906101000a900473ffffffffffffffffffffffffffffffffffffffff1681565b60006004543461059a9190610aab565b905080600360009054906101000a900473ffffffffffffffffffffffffffffffffffffffff1673ffffffffffffffffffffffffffffffffffffffff166370a08231306040518263ffffffff1660e01b81526004016105f891906108cb565b60206040518083038186803b15801561061057600080fd5b505afa158015610624573d6000803e3d6000fd5b505050506040513d601f19601f82011682018060405250810190610648919061081e565b101561065357600080fd5b600360009054906101000a900473ffffffffffffffffffffffffffffffffffffffff1673ffffffffffffffffffffffffffffffffffffffff1663a9059cbb33836040518363ffffffff1660e01b81526004016106b09291906109dd565b602060405180830381600087803b1580156106ca57600080fd5b505af11580156106de573d6000803e3d6000fd5b505050506040513d601f19601f8201168201806040525081019061070291906107cc565b507f6faf93231a456e552dbc9961f58d9713ee4f2e69d15f1975b050ef0911053a7b33600360009054906101000a900473ffffffffffffffffffffffffffffffffffffffff168360045460405161075c9493929190610998565b60405180910390a150565b600360009054906101000a900473ffffffffffffffffffffffffffffffffffffffff1681565b60008151905061079c81610cbc565b92915050565b6000813590506107b181610cd3565b92915050565b6000815190506107c681610cd3565b92915050565b6000602082840312156107de57600080fd5b60006107ec8482850161078d565b91505092915050565b60006020828403121561080757600080fd5b6000610815848285016107a2565b91505092915050565b60006020828403121561083057600080fd5b600061083e848285016107b7565b91505092915050565b61085081610b5f565b82525050565b61085f81610b17565b82525050565b61086e81610b05565b82525050565b61087d81610b71565b82525050565b600061088e82610a5e565b6108988185610a69565b93506108a8818560208601610bb9565b6108b181610cab565b840191505092915050565b6108c581610b55565b82525050565b60006020820190506108e06000830184610865565b92915050565b60006020820190506108fb6000830184610847565b92915050565b60006020820190506109166000830184610856565b92915050565b60006060820190506109316000830186610847565b61093e6020830185610865565b61094b60408301846108bc565b949350505050565b60006080820190506109686000830187610847565b6109756020830186610865565b61098260408301856108bc565b61098f60608301846108bc565b95945050505050565b60006080820190506109ad6000830187610865565b6109ba6020830186610865565b6109c760408301856108bc565b6109d460608301846108bc565b95945050505050565b60006040820190506109f26000830185610865565b6109ff60208301846108bc565b9392505050565b6000602082019050610a1b6000830184610874565b92915050565b60006020820190508181036000830152610a3b8184610883565b905092915050565b6000602082019050610a5860008301846108bc565b92915050565b600081519050919050565b600082825260208201905092915050565b6000610a8582610b55565b9150610a9083610b55565b925082610aa057610a9f610c4d565b5b828204905092915050565b6000610ab682610b55565b9150610ac183610b55565b9250817fffffffffffffffffffffffffffffffffffffffffffffffffffffffffffffffff0483118215151615610afa57610af9610c1e565b5b828202905092915050565b6000610b1082610b35565b9050919050565b6000610b2282610b35565b9050919050565b60008115159050919050565b600073ffffffffffffffffffffffffffffffffffffffff82169050919050565b6000819050919050565b6000610b6a82610b95565b9050919050565b6000610b7c82610b83565b9050919050565b6000610b8e82610b35565b9050919050565b6000610ba082610ba7565b9050919050565b6000610bb282610b35565b9050919050565b60005b83811015610bd7578082015181840152602081019050610bbc565b83811115610be6576000848401525b50505050565b60006002820490506001821680610c0457607f821691505b60208210811415610c1857610c17610c7c565b5b50919050565b7f4e487b7100000000000000000000000000000000000000000000000000000000600052601160045260246000fd5b7f4e487b7100000000000000000000000000000000000000000000000000000000600052601260045260246000fd5b7f4e487b7100000000000000000000000000000000000000000000000000000000600052602260045260246000fd5b6000601f19601f8301169050919050565b610cc581610b29565b8114610cd057600080fd5b50565b610cdc81610b55565b8114610ce757600080fd5b5056fea26469706673582212203607dc246094ac91ea725e89339b37084d4684c168745b509ee6f5341f0b037464736f6c63430008000033",
  "immutableReferences": {},
  "source": "// SPDX-License-Identifier: MIT\r\npragma solidity ^0.8.0;\r\n\r\nimport \"./Token.sol\";\r\n\r\ncontract EthSwap {\r\n  string public name = \"EthSwap Instant Exchange\";\r\n  address payable public seller ;\r\n  address public owner = msg.sender;\r\n  Token public token;\r\n  uint public rate = 100;\r\n\r\n  event TokensPurchased(\r\n    address account,\r\n    address token,\r\n    uint amount,\r\n    uint rate\r\n  );\r\n\r\n  event TokensSold(\r\n    address account,\r\n    address token,\r\n    uint amount,\r\n    uint rate\r\n  );\r\n\r\n  constructor(Token _token)  {\r\n    token = _token;\r\n    seller = payable(owner);\r\n  }\r\n\r\n  function buyTokens() public payable {\r\n    // Calculate the number of tokens to buy\r\n    uint tokenAmount = msg.value * rate;\r\n\r\n    // Require that EthSwap has enough tokens\r\n    require(token.balanceOf(address(this)) >= tokenAmount);\r\n\r\n    // Transfer tokens to the user\r\n    token.transfer(msg.sender, tokenAmount);\r\n\r\n    // Emit an event\r\n    emit TokensPurchased(msg.sender, address(token), tokenAmount, rate);\r\n  }\r\n\r\n  function sellTokens(uint _amount) public payable {\r\n    \r\n    require(seller == owner);\r\n    // User can't sell more tokens than they have\r\n  \r\n    require(token.balanceOf(seller) >= _amount);\r\n\r\n    // Calculate the amount of Ether to redeem\r\n    uint etherAmount = _amount / rate;\r\n\r\n    // Require that EthSwap has enough Ether\r\n    require(address(this).balance >= etherAmount);\r\n\r\n    // Perform sale\r\n    token.transferFrom(seller, address(this), _amount);\r\n    seller.transfer(etherAmount);\r\n\r\n    // Emit an event\r\n    emit TokensSold(seller, address(token), _amount, rate);\r\n  }\r\n\r\n}",
  "sourcePath": "C:/Users/Karan/Blockchain - Ethereum/crypto_exchange/src/contracts/EthSwap.sol",
  "compiler": {
    "name": "solc",
    "version": "0.8.0+commit.c7dfd78e.Emscripten.clang"
  },
  "schemaVersion": "3.4.1",
  "updatedAt": "2021-08-19T11:27:08.538Z",
  "networkType": "ethereum",
  "devdoc": {
    "kind": "dev",
    "methods": {},
    "version": 1
  },
  "userdoc": {
    "kind": "user",
    "methods": {},
    "version": 1
  }
}